{
    "contractName": "LiquidityPool",
    "abi": [
        {
            "inputs": [
                {
                    "internalType": "contract IERC20",
                    "name": "_tokenA",
                    "type": "address"
                },
                {
                    "internalType": "contract IERC20",
                    "name": "_tokenB",
                    "type": "address"
                }
            ],
            "stateMutability": "nonpayable",
            "type": "constructor"
        },
        {
            "inputs": [
                {
                    "internalType": "address",
                    "name": "spender",
                    "type": "address"
                },
                {
                    "internalType": "uint256",
                    "name": "allowance",
                    "type": "uint256"
                },
                {
                    "internalType": "uint256",
                    "name": "needed",
                    "type": "uint256"
                }
            ],
            "name": "ERC20InsufficientAllowance",
            "type": "error"
        },
        {
            "inputs": [
                {
                    "internalType": "address",
                    "name": "sender",
                    "type": "address"
                },
                {
                    "internalType": "uint256",
                    "name": "balance",
                    "type": "uint256"
                },
                {
                    "internalType": "uint256",
                    "name": "needed",
                    "type": "uint256"
                }
            ],
            "name": "ERC20InsufficientBalance",
            "type": "error"
        },
        {
            "inputs": [
                {
                    "internalType": "address",
                    "name": "approver",
                    "type": "address"
                }
            ],
            "name": "ERC20InvalidApprover",
            "type": "error"
        },
        {
            "inputs": [
                {
                    "internalType": "address",
                    "name": "receiver",
                    "type": "address"
                }
            ],
            "name": "ERC20InvalidReceiver",
            "type": "error"
        },
        {
            "inputs": [
                {
                    "internalType": "address",
                    "name": "sender",
                    "type": "address"
                }
            ],
            "name": "ERC20InvalidSender",
            "type": "error"
        },
        {
            "inputs": [
                {
                    "internalType": "address",
                    "name": "spender",
                    "type": "address"
                }
            ],
            "name": "ERC20InvalidSpender",
            "type": "error"
        },
        {
            "inputs": [],
            "name": "InsufficientLiquidity",
            "type": "error"
        },
        {
            "inputs": [],
            "name": "InvalidAmount",
            "type": "error"
        },
        {
            "inputs": [],
            "name": "InvalidToken",
            "type": "error"
        },
        {
            "inputs": [
                {
                    "internalType": "address",
                    "name": "token",
                    "type": "address"
                }
            ],
            "name": "SafeERC20FailedOperation",
            "type": "error"
        },
        {
            "anonymous": false,
            "inputs": [
                {
                    "indexed": true,
                    "internalType": "address",
                    "name": "owner",
                    "type": "address"
                },
                {
                    "indexed": true,
                    "internalType": "address",
                    "name": "spender",
                    "type": "address"
                },
                {
                    "indexed": false,
                    "internalType": "uint256",
                    "name": "value",
                    "type": "uint256"
                }
            ],
            "name": "Approval",
            "type": "event"
        },
        {
            "anonymous": false,
            "inputs": [
                {
                    "indexed": true,
                    "internalType": "address",
                    "name": "provider",
                    "type": "address"
                },
                {
                    "indexed": false,
                    "internalType": "uint256",
                    "name": "amountA",
                    "type": "uint256"
                },
                {
                    "indexed": false,
                    "internalType": "uint256",
                    "name": "amountB",
                    "type": "uint256"
                },
                {
                    "indexed": false,
                    "internalType": "uint256",
                    "name": "liquidityTokenAmount",
                    "type": "uint256"
                }
            ],
            "name": "LiquidityAdded",
            "type": "event"
        },
        {
            "anonymous": false,
            "inputs": [
                {
                    "indexed": true,
                    "internalType": "address",
                    "name": "Cashouted",
                    "type": "address"
                },
                {
                    "indexed": false,
                    "internalType": "uint256",
                    "name": "amountA",
                    "type": "uint256"
                },
                {
                    "indexed": false,
                    "internalType": "uint256",
                    "name": "amountB",
                    "type": "uint256"
                },
                {
                    "indexed": false,
                    "internalType": "uint256",
                    "name": "lpBurn",
                    "type": "uint256"
                }
            ],
            "name": "LiquidityRemoved",
            "type": "event"
        },
        {
            "anonymous": false,
            "inputs": [
                {
                    "indexed": true,
                    "internalType": "address",
                    "name": "Swapper",
                    "type": "address"
                },
                {
                    "indexed": false,
                    "internalType": "uint256",
                    "name": "amountIn",
                    "type": "uint256"
                },
                {
                    "indexed": false,
                    "internalType": "uint256",
                    "name": "amountOut",
                    "type": "uint256"
                }
            ],
            "name": "Swapped",
            "type": "event"
        },
        {
            "anonymous": false,
            "inputs": [
                {
                    "indexed": true,
                    "internalType": "address",
                    "name": "from",
                    "type": "address"
                },
                {
                    "indexed": true,
                    "internalType": "address",
                    "name": "to",
                    "type": "address"
                },
                {
                    "indexed": false,
                    "internalType": "uint256",
                    "name": "value",
                    "type": "uint256"
                }
            ],
            "name": "Transfer",
            "type": "event"
        },
        {
            "inputs": [
                {
                    "internalType": "uint256",
                    "name": "amountA",
                    "type": "uint256"
                },
                {
                    "internalType": "uint256",
                    "name": "amountB",
                    "type": "uint256"
                }
            ],
            "name": "addLiquidity",
            "outputs": [],
            "stateMutability": "nonpayable",
            "type": "function"
        },
        {
            "inputs": [
                {
                    "internalType": "address",
                    "name": "owner",
                    "type": "address"
                },
                {
                    "internalType": "address",
                    "name": "spender",
                    "type": "address"
                }
            ],
            "name": "allowance",
            "outputs": [
                {
                    "internalType": "uint256",
                    "name": "",
                    "type": "uint256"
                }
            ],
            "stateMutability": "view",
            "type": "function"
        },
        {
            "inputs": [
                {
                    "internalType": "address",
                    "name": "spender",
                    "type": "address"
                },
                {
                    "internalType": "uint256",
                    "name": "value",
                    "type": "uint256"
                }
            ],
            "name": "approve",
            "outputs": [
                {
                    "internalType": "bool",
                    "name": "",
                    "type": "bool"
                }
            ],
            "stateMutability": "nonpayable",
            "type": "function"
        },
        {
            "inputs": [
                {
                    "internalType": "address",
                    "name": "account",
                    "type": "address"
                }
            ],
            "name": "balanceOf",
            "outputs": [
                {
                    "internalType": "uint256",
                    "name": "",
                    "type": "uint256"
                }
            ],
            "stateMutability": "view",
            "type": "function"
        },
        {
            "inputs": [],
            "name": "decimals",
            "outputs": [
                {
                    "internalType": "uint8",
                    "name": "",
                    "type": "uint8"
                }
            ],
            "stateMutability": "view",
            "type": "function"
        },
        {
            "inputs": [],
            "name": "name",
            "outputs": [
                {
                    "internalType": "string",
                    "name": "",
                    "type": "string"
                }
            ],
            "stateMutability": "view",
            "type": "function"
        },
        {
            "inputs": [
                {
                    "internalType": "uint256",
                    "name": "liquidityTokenAmount",
                    "type": "uint256"
                }
            ],
            "name": "removeLiquidity",
            "outputs": [],
            "stateMutability": "nonpayable",
            "type": "function"
        },
        {
            "inputs": [],
            "name": "reserveA",
            "outputs": [
                {
                    "internalType": "uint256",
                    "name": "",
                    "type": "uint256"
                }
            ],
            "stateMutability": "view",
            "type": "function"
        },
        {
            "inputs": [],
            "name": "reserveB",
            "outputs": [
                {
                    "internalType": "uint256",
                    "name": "",
                    "type": "uint256"
                }
            ],
            "stateMutability": "view",
            "type": "function"
        },
        {
            "inputs": [
                {
                    "internalType": "uint256",
                    "name": "amountIn",
                    "type": "uint256"
                },
                {
                    "internalType": "contract IERC20",
                    "name": "_token0",
                    "type": "address"
                }
            ],
            "name": "swap",
            "outputs": [],
            "stateMutability": "nonpayable",
            "type": "function"
        },
        {
            "inputs": [],
            "name": "symbol",
            "outputs": [
                {
                    "internalType": "string",
                    "name": "",
                    "type": "string"
                }
            ],
            "stateMutability": "view",
            "type": "function"
        },
        {
            "inputs": [],
            "name": "tokenA",
            "outputs": [
                {
                    "internalType": "contract IERC20",
                    "name": "",
                    "type": "address"
                }
            ],
            "stateMutability": "view",
            "type": "function"
        },
        {
            "inputs": [],
            "name": "tokenB",
            "outputs": [
                {
                    "internalType": "contract IERC20",
                    "name": "",
                    "type": "address"
                }
            ],
            "stateMutability": "view",
            "type": "function"
        },
        {
            "inputs": [],
            "name": "totalSupply",
            "outputs": [
                {
                    "internalType": "uint256",
                    "name": "",
                    "type": "uint256"
                }
            ],
            "stateMutability": "view",
            "type": "function"
        },
        {
            "inputs": [
                {
                    "internalType": "address",
                    "name": "to",
                    "type": "address"
                },
                {
                    "internalType": "uint256",
                    "name": "value",
                    "type": "uint256"
                }
            ],
            "name": "transfer",
            "outputs": [
                {
                    "internalType": "bool",
                    "name": "",
                    "type": "bool"
                }
            ],
            "stateMutability": "nonpayable",
            "type": "function"
        },
        {
            "inputs": [
                {
                    "internalType": "address",
                    "name": "from",
                    "type": "address"
                },
                {
                    "internalType": "address",
                    "name": "to",
                    "type": "address"
                },
                {
                    "internalType": "uint256",
                    "name": "value",
                    "type": "uint256"
                }
            ],
            "name": "transferFrom",
            "outputs": [
                {
                    "internalType": "bool",
                    "name": "",
                    "type": "bool"
                }
            ],
            "stateMutability": "nonpayable",
            "type": "function"
        }
    ],
    "bytecode": "608060405234610377576111426040813803918261001c8161037b565b9384928339810103126103775761003e6020610037836103a0565b92016103a0565b90610049604061037b565b91600c83526b2937b3902628102a37b5b2b760a11b602084015261006d604061037b565b60038152620524c560ec1b602082015283519092906001600160401b03811161027d57600354600181811c9116801561036d575b602082101461025f57601f81116102ff575b50602094601f821160011461029c579481929394955f92610291575b50508160011b915f199060031b1c1916176003555b82516001600160401b03811161027d57600454600181811c91168015610273575b602082101461025f57601f81116101f1575b506020601f821160011461018e57819293945f92610183575b50508160011b915f199060031b1c1916176004555b600580546001600160a01b039283166001600160a01b03199182161790915560068054939092169216919091179055604051610d8d90816103b58239f35b015190505f80610130565b601f1982169060045f52805f20915f5b8181106101d9575095836001959697106101c1575b505050811b01600455610145565b01515f1960f88460031b161c191690555f80806101b3565b9192602060018192868b01518155019401920161019e565b818111156101175760045f52601f820160051c7f8a35acfbc15ff81a39ae7d344fd709f28e8600b4aa8c65c6b64bfe7fe36bd19b60208410610257575b81601f9101920160051c03905f5b82811061024a575050610117565b5f8282015560010161023c565b5f915061022e565b634e487b7160e01b5f52602260045260245ffd5b90607f1690610105565b634e487b7160e01b5f52604160045260245ffd5b015190505f806100cf565b601f1982169560035f52805f20915f5b8881106102e7575083600195969798106102cf575b505050811b016003556100e4565b01515f1960f88460031b161c191690555f80806102c1565b919260206001819286850151815501940192016102ac565b818111156100b35760035f52601f820160051c7fc2575a0e9e593c00f959f8c92f12db2869c3395a3b0502d05e2516446f71f85b60208410610365575b81601f9101920160051c03905f5b8281106103585750506100b3565b5f8282015560010161034a565b5f915061033c565b90607f16906100a1565b5f80fd5b6040519190601f01601f191682016001600160401b0381118382101761027d57604052565b51906001600160a01b03821682036103775756fe6080806040526004361015610012575f80fd5b5f3560e01c90816306fdde031461094157508063095ea7b3146108bf5780630fc63d101461089757806318160ddd1461087a57806319e36f3b1461085d57806323b872dd1461077e578063313ce567146107635780635f64b55b1461073b57806370a082311461070457806395d89b41146105e95780639c8f9f23146104925780639cd441da14610309578063a9059cbb146102d8578063d3986f081461013d578063dc5fa6c5146101205763dd62ed3e146100cc575f80fd5b3461011c57604036600319011261011c576100e5610a3a565b6100ed610a50565b6001600160a01b039182165f908152600160209081526040808320949093168252928352819020549051908152f35b5f80fd5b3461011c575f36600319011261011c576020600754604051908152f35b3461011c57604036600319011261011c576004356024356001600160a01b03811680820361011c5782156102c9576005546001600160a01b0316811490819081156102b4575b50156102a5576103e583028381046103e5036102915783926103e8849204925f1461023d576101e56101f1936008546101dd6101d56101c28484610a66565b6101cf6007549586610aa4565b90610a79565b978893610aa4565b600755610a97565b60085530903390610cee565b60065461020a90829033906001600160a01b0316610b48565b60405191825260208201527f3a9a9f34f5831e9c8ecb66ab3aa308b2ff31eaca434615f6c9cadc656a9af71c60403392a2005b61026c610278936007546102646101d56102578385610a66565b6101cf6008549586610aa4565b600855610a97565b60075530903390610cee565b60055461020a90829033906001600160a01b0316610b48565b634e487b7160e01b5f52601160045260245ffd5b63c1ab6dc160e01b5f5260045ffd5b6006546001600160a01b031614905084610183565b63162908e360e11b5f5260045ffd5b3461011c57604036600319011261011c576102fe6102f4610a3a565b6024359033610ab1565b602060405160018152f35b3461011c57604036600319011261011c5760043560243581151580610489575b156102c9576002548061044f57506103496103448284610a66565b610bc9565b80156104405761035b83600754610aa4565b60075561036a82600854610aa4565b600855331561042d577f64b83944e79c3ce8d4c297411de637c3e102d064677aac0c163976ebdcd6f50e916103a182600254610aa4565b600255335f525f60205260405f208281540190556040518281525f7fddf252ad1be2c89b69c2b068fc378daa952ba7f163c4a11628f55a4df523b3ef60203393a36005546103fd908590309033906001600160a01b0316610cee565b61041381303360018060a01b0360065416610cee565b6040805194855260208501919091528301523391606090a2005b63ec442f0560e01b5f525f60045260245ffd5b63bb55fd2760e01b5f5260045ffd5b61047b61047261046b6104628487610a66565b60075490610a79565b9284610a66565b60085490610a79565b908180821091180218610349565b50801515610329565b3461011c57602036600319011261011c5760043580156102c957600754906104ba8282610a66565b906104c86002548093610a79565b916104df600854916104da8385610a66565b610a79565b93831515806105e0575b156102c9576104fd916101dd858793610a97565b60085533156105cd57335f525f60205260405f2054928184106105b257817f1dc8bb69df2b8e91fbdcbfcf93d951b3f0000f085a95fe3f7946d6161439245d9394335f525f6020520360405f205581600254036002555f6040518381527fddf252ad1be2c89b69c2b068fc378daa952ba7f163c4a11628f55a4df523b3ef60203392a360055461059990859033906001600160a01b0316610b48565b60065461041390829033906001600160a01b0316610b48565b508263391434e360e21b5f523360045260245260445260645ffd5b634b637e8f60e11b5f525f60045260245ffd5b508415156104e9565b3461011c575f36600319011261011c576040515f6004548060011c906001811680156106fa575b6020831081146106e6578285529081156106ca5750600114610675575b50819003601f01601f191681019067ffffffffffffffff8211818310176106615761065d82918260405282610a10565b0390f35b634e487b7160e01b5f52604160045260245ffd5b905060045f527f8a35acfbc15ff81a39ae7d344fd709f28e8600b4aa8c65c6b64bfe7fe36bd19b5f905b8282106106b45750602091508201018261062d565b600181602092548385880101520191019061069f565b90506020925060ff191682840152151560051b8201018261062d565b634e487b7160e01b5f52602260045260245ffd5b91607f1691610610565b3461011c57602036600319011261011c576001600160a01b03610725610a3a565b165f525f602052602060405f2054604051908152f35b3461011c575f36600319011261011c576006546040516001600160a01b039091168152602090f35b3461011c575f36600319011261011c57602060405160128152f35b3461011c57606036600319011261011c57610797610a3a565b61079f610a50565b6001600160a01b0382165f818152600160209081526040808320338452909152902054909260443592915f1981106107dd575b506102fe9350610ab1565b83811061084257841561082f57331561081c576102fe945f52600160205260405f2060018060a01b0333165f526020528360405f2091039055846107d2565b634a1406b160e11b5f525f60045260245ffd5b63e602df0560e01b5f525f60045260245ffd5b8390637dc7a0d960e11b5f523360045260245260445260645ffd5b3461011c575f36600319011261011c576020600854604051908152f35b3461011c575f36600319011261011c576020600254604051908152f35b3461011c575f36600319011261011c576005546040516001600160a01b039091168152602090f35b3461011c57604036600319011261011c576108d8610a3a565b60243590331561082f576001600160a01b031690811561081c57335f52600160205260405f20825f526020528060405f20556040519081527f8c5be1e5ebec7d5bd14f71427d1e84f3dd0314c0f7b2291e5b200ac8c7c3b92560203392a3602060405160018152f35b3461011c575f36600319011261011c575f6003548060011c90600181168015610a06575b6020831081146106e6578285529081156106ca57506001146109b15750819003601f01601f191681019067ffffffffffffffff8211818310176106615761065d82918260405282610a10565b905060035f527fc2575a0e9e593c00f959f8c92f12db2869c3395a3b0502d05e2516446f71f85b5f905b8282106109f05750602091508201018261062d565b60018160209254838588010152019101906109db565b91607f1691610965565b602060409281835280519182918282860152018484015e5f828201840152601f01601f1916010190565b600435906001600160a01b038216820361011c57565b602435906001600160a01b038216820361011c57565b8181029291811591840414171561029157565b8115610a83570490565b634e487b7160e01b5f52601260045260245ffd5b9190820391821161029157565b9190820180921161029157565b6001600160a01b03169081156105cd576001600160a01b031691821561042d57815f525f60205260405f2054818110610b2f57817fddf252ad1be2c89b69c2b068fc378daa952ba7f163c4a11628f55a4df523b3ef92602092855f525f84520360405f2055845f525f825260405f20818154019055604051908152a3565b8263391434e360e21b5f5260045260245260445260645ffd5b916040519163a9059cbb60e01b5f5260018060a01b031660045260245260205f60448180865af19060015f5114821615610ba8575b60405215610b885750565b635274afe760e01b5f9081526001600160a01b0391909116600452602490fd5b906001811516610bc057823b15153d15161690610b7d565b503d5f823e3d90fd5b6001811115610ceb57806001600160801b821015610cda575b600482600160401b610c8c941015610ccd575b640100000000811015610cc0575b62010000811015610cb3575b610100811015610ca7575b6010811015610c9b575b1015610c93575b60030260011c610c3b8184610a79565b0160011c610c498184610a79565b0160011c610c578184610a79565b0160011c610c658184610a79565b0160011c610c738184610a79565b0160011c610c818184610a79565b0160011c8092610a79565b8111900390565b60011b610c2b565b811c9160021b91610c24565b60081c91811b91610c1a565b60101c9160081b91610c0f565b60201c9160101b91610c03565b60401c9160201b91610bf5565b5050608081901c600160401b610be2565b90565b6040516323b872dd60e01b5f9081526001600160a01b039384166004529290931660245260449390935260209060648180865af19060015f5114821615610d3f575b6040525f60605215610b885750565b906001811516610bc057823b15153d15161690610d3056fea264697066735822122059853c67639d35f4820c786f8d104154103247ac932377042703dd4cb159122e64736f6c63430008230033",
    "sourcePath": "/mnt/d/projects/dex-protocol/src/core/LiquidityPool.sol",
    "compiler": {
        "name": "solc",
        "version": "0.8.35+commit.47b9dedd"
    },
    "functionHashes": {
        "addLiquidity(uint256,uint256)": "9cd441da",
        "allowance(address,address)": "dd62ed3e",
        "approve(address,uint256)": "095ea7b3",
        "balanceOf(address)": "70a08231",
        "decimals()": "313ce567",
        "name()": "06fdde03",
        "removeLiquidity(uint256)": "9c8f9f23",
        "reserveA()": "dc5fa6c5",
        "reserveB()": "19e36f3b",
        "swap(uint256,address)": "d3986f08",
        "symbol()": "95d89b41",
        "tokenA()": "0fc63d10",
        "tokenB()": "5f64b55b",
        "totalSupply()": "18160ddd",
        "transfer(address,uint256)": "a9059cbb",
        "transferFrom(address,address,uint256)": "23b872dd"
    },
    "gasEstimates": {
        "creation": {
            "codeDepositCost": "693800",
            "executionCost": "infinite",
            "totalCost": "infinite"
        },
        "external": {
            "addLiquidity(uint256,uint256)": "infinite",
            "allowance(address,address)": "2900",
            "approve(address,uint256)": "24325",
            "balanceOf(address)": "2581",
            "decimals()": "285",
            "name()": "infinite",
            "removeLiquidity(uint256)": "infinite",
            "reserveA()": "2564",
            "reserveB()": "2344",
            "swap(uint256,address)": "infinite",
            "symbol()": "infinite",
            "tokenA()": "2324",
            "tokenB()": "2434",
            "totalSupply()": "2322",
            "transfer(address,uint256)": "51018",
            "transferFrom(address,address,uint256)": "75567"
        }
    }
}